:100000000C9448000C9400000C9400000C94000028
:100010000C9400000C9400000C9400000C94000060
:100020000C9400000C9400000C9400000C94000050
:100030000C9400000C9400000C9400000C94000040
:100040000C9400000C9400000C9400000C94000030
:100050000C940000546865206E756D6265722069AD
:1000600073203A200020526573657420646F6E65BA
:100070002120000080C001002D4E414E00494E4617
:1000800000000200600274000100640276000000BB
:10009000F894EE27ECBBF1E0FBBFEBBFE5BF8DE0D2
:1000A000A2E0BB27ED938A95E9F780E098E0A0E60F
:1000B000ED930197E9F7E2E8F0E0859195910097DB
:1000C00061F0A591B59105901590BF01F0010590E3
:1000D0000D920197E1F7FB01F0CFEFE5EDBFE8E00E
:1000E000EEBFC0E6D2E00C947500259700E010E06A
:1000F000A098A398A89AAB9AA0E196D0989913C01B
:10010000989BFECF0F5F1F4FE0E0EA93A0E03CD04A
:10011000A4E5B0E076D01A930A93DE0112960E940D
:100120004201DE015FD09B990DC09B9BFECF00E09A
:1001300010E037D0A5E6B0E064D0A8EEB3E00E94AE
:100140007E012FD0DBCFFFCFAA93EBB3EF70AE2FA2
:10015000E881E07FEA2BEBBB8DE08A95F1F7DA9A34
:100160008DE08A95F1F7DA988DE08A95F1F788C0ED
:10017000AA93A881E9DFE881E295E883A881E4DF1A
:1001800085E88A95F1F77CC0AA93E881F0E0E05A0F
:10019000FD4FE081A981AE0FEBDF598048802296A8
:1001A0000895A2E00E947001ACE0E2DFA1E00E94AD
:1001B0007001E0E04E2E5E2E0895AA93A881AA3029
:1001C00011F0571448F0E0E0EA934394A42DDCDFEB
:1001D000A881AA3009F454C05394D89AA881C8DFE2
:1001E000D8984EC0BA93AA931A93A981BA81ED9177
:1001F000A983BA831E2FE03019F0A12FDEDFF5CFDF
:1002000010C0BA93AA931A93E981FA813196E983CF
:10021000FA833197E4911E2FE03019F0A12FCDDF42
:10022000F3CF188123960895AA93EAB3E06FEABB4F
:10023000D29AD09AD19ADA98D898D9987880E881C9
:10024000E058E0936202E881E054E0936302A4E1A5
:10025000B0E00E947E010E9476010E9476010E9419
:100260007601A0E271DF88EC90E00197F1F7A8E257
:100270007FDFA4E07DDFA5E87BDFA6E079DF91DF0B
:1002800021960895BA93AA93A991B991E991F99108
:1002900030962AF4E095F09531966DE26D93E894EE
:1002A00080E197E20DD088EE93E00AD084E69927AA
:1002B00007D08AE005D06E2F10D066276C93089582
:1002C0006627E817F90720F06395E81BF90BC9F7D3
:1002D000662311F416F008956894605D6D93089597
:1002E0000E94B800A3E0B0E00C947E01A0E30E945D
:1002F000A40088EC90E00197F1F70895109639F08A
:1003000080ED97E00197F1F7A8951197C9F7089547
:00000001FF
