:020000000C945E
:1000020063000C9400000C9400000C9400000C940B
:1000120000000C9400000C9400000C9400000C945E
:1000220000000C9400000C9400000C9400000C944E
:1000320000000C9400000C9400000C9400000C943E
:1000420000000C9400000C9400000C9400000C942E
:10005200000000000000000000000000000000009E
:10006200000000000000000000000000000000008E
:100072000000000000000000456E746572204E20F2
:100082006F6620667320617300666F6C6C6F7773A6
:10009200004E2F66312D66322B66330020697320A5
:1000A200494E56414C49440001002D4E414E0049F3
:1000B2004E46000080C001006002AA0002006402F5
:1000C200B6000000F894EE27ECBBF1E0FBBFEBBFFB
:1000D200E5BF8DE0A2E0BB27ED938A95E9F780E0CA
:1000E20098E0A0E6ED930197E9F7E8EBF0E085915F
:1000F2009591009761F0A591B59105901590BF017A
:10010200F00105900D920197E1F7FB01F0CFEFE5C9
:10011200EDBFE8E0EEBFC0E6D2E00C949000A697F7
:1001220086E2A0E0B0E0E4E5F0E00E949A0600E09A
:1001320010E020E030E040E050E0EFE0E4BBE0E03F
:10014200E5BB8898909ABB9A8D9A8F9AA0E10E94FB
:100152008A04E0E0EA93A0E00E943A04AAE7B0E051
:100162000E947704E0E00E94B804ABE8B0E00E948D
:100172007704ACEDB5E00E94BC04A3E9B0E00E94B4
:100182007704A0EDB7E00E94BC04A89A9C9B07C02C
:100192009C99FECF07E010E041E050E01AC09D9B21
:1001A20007C09D99FECF08E010E041E050E011C089
:1001B2009E9B07C09E99FECF09E010E041E050E00F
:1001C20008C09F9B06C09F99FECFE1E0F0E00E942D
:1001D200C0040E94C704A898A99A9C9B07C09C9936
:1001E200FECF04E010E041E050E01AC09D9B07C042
:1001F2009D99FECF05E010E041E050E011C09E9BCA
:1002020007C09E99FECF06E010E041E050E008C032
:100212009F9B06C09F99FECFE1E0F0E0EA83FB835B
:100222000E94C704A998AA9A9C9B07C09C99FECFDA
:1002320001E010E041E050E01AC09D9B07C09D998B
:10024200FECF02E010E041E050E011C09E9B07C0EB
:100252009E99FECF03E010E041E050E008C09F9B72
:1002620006C09F99FECFE2E0F0E00E94C0040E9427
:10027200C704AA98AB9A9C9B07C09C99FECFE1E069
:10028200F0E0E883F9831AC09D9B07C09D99FECFD9
:1002920000E010E041E050E011C09E9B07C09E9933
:1002A200FECFE1E0F0E0EC8BFD8B08C09F9B06C027
:1002B2009F99FECFE3E0F0E00E94C004AB980E9459
:1002C200C704809927C0809BFECF0E94470400E0AC
:1002D20010E020E030E00E94CB040E94D104E0E074
:1002E200EA8FEB8FEC8FED8FE88FE98FEE8BEF8B40
:1002F20040E050E0EA83EB83E883E983EC8BED8B0B
:10030200ECBFE3BFE5BDE3BDEFBDEEBDE0E0F0E075
:10031200FBBDEABD0E94C704A88DB98D109719F4E0
:100322000E94D60409F00AC0F901AAE0B0E00E94D6
:100332004506E00FF11F9F010E94DB042430E0E03C
:100342003E0754F0AEE9B0E00E947704A8EEB3E0B5
:100352000E94BC0420E030E0A88DB98D119721F4F1
:10036200AE89BF89119709F002C00E94E804A88DE6
:10037200B98D129721F4AE89BF89119709F002C095
:100382000E94E804A88DB98D139721F4AE89BF8924
:10039200119709F002C00E94E804E1E0F0E0E217E0
:1003A200F30741F0E2E0F0E0E217F30719F00E94F0
:1003B200EF0439F4A88DB98D119719F40E94D6046F
:1003C20009F00AC00E94F4040E94F904EAA3FBA304
:1003D2006CA37DA30E94DB04AC89BD89119709F04F
:1003E2007CC00E9407050E940C051CF40E941405A3
:1003F2000CF409C0E9E10E941D050E942105ECBF31
:10040200ECB7F0E060C00E9407050E942B052CF4B7
:100412000E9407050E9433050CF409C0EAE10E941C
:100422001D050E943B05ECBFECB7F0E04CC00E94FA
:1004320007050E9449052CF40E9407050E945105F8
:100442000CF409C0EBE10E941D050E945905ECBFA6
:10045200ECB7F0E038C00E9414052CF40E940705A6
:100462000E9467050CF409C0ECE10E941D050E9480
:100472006F05ECBFECB7F0E026C00E9407050E94B2
:100482007D051CF40E9485050CF40AC0EDE10E9472
:100492001D050E948E05E150ECBFECB7F0E013C0E1
:1004A2000E9485052CF40E9407050E949B050CF40E
:1004B20014C0E0E4EFBDEDE0EEBD0E94F4040E9442
:1004C2008E050E94A305FA93EA930E94B1050E9449
:1004D200CB040E94B8040E94B505E0E0EC8BED8BE2
:1004E200E2E0F0E0E217F30719F00E94EF0439F4BA
:1004F200A88DB98D129719F40E94D60409F00AC08A
:100502000E94B9050E94F904EE8FFF8F68A379A3B8
:100512000E94DB04AA81BB81119709F0A9C00E9445
:10052200BE050E940C052CF40E94BE050E94C30564
:100532000CF40FC0E9E10E94CB050E9421050E9444
:10054200CF05E5E00E94B8040E94B505E0E00E94F4
:10055200D1040E94BE050E942B052CF40E94BE0508
:100562000E9433050CF40FC0EAE10E94CB050E9401
:100572003B050E94CF05E5E00E94B8040E94B50544
:10058200E0E00E94D1040E94BE050E9449052CF4BD
:100592000E94BE050E9451050CF40FC0ECE10E94BE
:1005A200CB050E9459050E94CF05E5E00E94B804E0
:1005B2000E94B505E0E00E94D1040E94BE05AA3067
:1005C200EDE3BE07E0E08E07E0E09E072CF40E9418
:1005D200BE050E9467050CF40FC0EEE10E94CB0538
:1005E2000E946F050E94CF05E5E00E94B8040E94B8
:1005F200B505E0E00E94D1040E94BE050E947D057F
:100602001CF40E94D5050CF411C0EFE10E94CB0549
:100612000E948E05E1500E94CF05E5E00E94B804D9
:100622000E94B505E0E00E94D1041FC00E94D505DA
:100632002CF40E94BE050E949B050CF416C0E0E556
:10064200EFBDEDE0EEBD0E94B9050E948E050E944D
:10065200A305FA93EA930E94B105E0E00E94D10457
:10066200E5E00E94B8040E94B505E0E0EA83EB836E
:100672000E94EF0439F4A88DB98D139719F40E94E2
:10068200D60409F00AC00E94DE050E94F904EA8F2E
:10069200FB8F6C8F7D8F0E94DB04A881B98111973B
:1006A20009F097C00E94E305A030E9E0BE07EDE340
:1006B2008E07E0E09E072CF40E94E3050E94670586
:1006C2000CF409C0E0E5EFBDE9E0EEBD0E94DE05F5
:1006D2000E94130662C00E94E305A032E1EABE074F
:1006E200E7E08E07E0E09E0754F40E94E305A7309E
:1006F200E0E0BE07E0E08E07E0E09E070CF40BC0EE
:10070200E0E4EFBDEAE0EEBD0E94DE05A0E1B0E06C
:1007120080E090E040C00E94E305A432E4EFBE070F
:10072200E0E08E07E0E09E071CF40E94E8050CF46E
:100732000BC0E0E4EFBDEBE0EEBD0E94DE05A0E8F9
:10074200B0E080E090E027C00E94E3050E94C3056C
:100752001CF40E94E8050CF40BC0E0E4EFBDECE0F1
:10076200EEBD0E94DE05A0E0B2E080E090E013C0A2
:100772000E94E3050E947D051CF40E94E8050CF42A
:1007820025C0E0E4EFBDEDE0EEBD0E94DE05A0E095
:10079200B8E080E090E00E944A06A0E0B2E18AE779
:1007A20090E00E9474063197FBBDEABDEAB5FBB545
:1007B200FA93EA930E94B105EAE00E94B8040E940B
:1007C200B505E0E0EA8FEB8FEC8FED8FE0E0E88398
:1007D200E983DBCCFFCFBA93AA93A991B991E991AE
:1007E200F99130962AF4E095F09531966DE26D9389
:1007F200E89480E197E20DD088EE93E00AD084E697
:10080200992707D08AE005D06E2F10D066276C9307
:1008120008956627E817F90720F06395E81BF90B9E
:10082200C9F7662311F416F008956894605D6D931C
:100832000895AA93EBB3EF70AE2FE881E07FEA2B25
:10084200EBBB8DE08A95F1F7DA9A8DE08A95F1F7A4
:10085200DA988DE08A95F1F788C0AA93A881E9DF3A
:10086200E881E295E883A881E4DF85E88A95F1F7DB
:100872007CC0AA93E881F0E0EC59FD4FE081A981A8
:10088200AE0FEBDF5980488022960895A2E00E94C5
:10089200EA05ACE0E2DFA1E00E94EA05E0E04E2ECC
:1008A2005E2E0895AA93A881AA3011F0571448F039
:1008B200E0E0EA934394A42DDCDFA881AA3009F496
:1008C20054C05394D89AA881C8DFD8984EC0BA931E
:1008D200AA931A93A981BA81ED91A983BA831E2F93
:1008E200E03019F0A12FDEDFF5CF10C0BA93AA9342
:1008F2001A93E981FA813196E983FA833197E49177
:100902001E2FE03019F0A12FCDDFF3CF18812396EF
:100912000895AA93EAB3E06FEABBD29AD09AD19A29
:10092200DA98D898D9987880E881E058E0936602FE
:10093200E881E054E0936702A4E1B0E00E94F80588
:100942000E94F0050E94F0050E94F005A0E271DF0E
:1009520088EC90E00197F1F7A8E27FDFA4E07DDF69
:10096200A5E87BDFA6E079DF91DF21960895EA937F
:10097200A1E00C943A040E94F8050C944704E88F15
:10098200F98FE1E0F0E0EE8BFF8B0895AAE0B0E092
:100992000C94F805E0E0EAA3EBA3ECA3EDA3089521
:1009A200EE8FEF8FE8A3E9A30895E1E0F0E0E4170A
:1009B200F50708951A930A93DE0116960E94EC0336
:1009C200DE0114960E94680440E050E00895AFE210
:1009D2000E945304E0E0EE8BEF8B0895E3E0F0E039
:1009E200E217F3070895EAA1FBA16CA17DA1089586
:1009F200AAE0B0E080E090E00E944A06DF01CB016D
:100A0200F8010E9418060E9402060895AAA1BBA13D
:100A12008CA19DA10895A130E9E0BE07EDE38E0708
:100A2200E0E09E070895F2DFAA30EDE3BE07E0E0C2
:100A32008E07E0E09E070895E3BFE0E0E2BFD3CF78
:100A42000E941306A0E0B2E18AE790E00E947406D9
:100A5200E1500895A132E1EABE07E7E08E07E0E047
:100A62009E070895A13AE7E0BE07E0E08E07E0E0C6
:100A72009E070895A0E1B0E080E090E00E944A065F
:100A8200A0E0B2E18AE790E00E947406E150089586
:100A9200A532E4EFBE07E0E08E07E0E09E0708958E
:100AA200A43FE0E0BE07E0E08E07E0E09E07089585
:100AB200A0E8B0E080E090E00E944A06A0E0B2E147
:100AC2008AE790E00E947406E1500895AD33E0E0B9
:100AD200BE07E0E08E07E0E09E070895A0E0B2E0E6
:100AE20080E090E00E944A06A0E0B2E18AE790E04E
:100AF2000E947406E1500895A334EFE0BE07E0E0DF
:100B02008E07E0E09E07089581DFAF30E0E0BE0788
:100B1200E0E08E07E0E09E070895A0E0B8E080E004
:100B220090E00E944A06A0E0B2E18AE790E00E94CB
:100B320074060895A130E0E0BE07E0E08E07E0E031
:100B42009E0708953197FBBDEABDEAB5FBB5FA935E
:100B5200EA93DE0116960E94EC03EAB5FBB508950E
:100B6200DE0116960C94EC03DE0114960C946804D4
:100B7200EE8DFF8D68A179A10895AE8DBF8D88A1FC
:100B820099A10895A930EDE3BE07E0E08E07E0E009
:100B92009E070895E5BDE0E0E4BDEACFE3BDE3B51D
:100BA200F0E0FA93EA93DCCFE8DFAF30E0E0BE0793
:100BB200E0E08E07E0E09E070895EA8DFB8D6C8DE4
:100BC2007D8D0895AA8DBB8D8C8D9D8D0895FADF44
:100BD200B1CF0E942E04A3E0B0E00C94F805A0E38C
:100BE2000E941A0488EC90E00197F1F7089510969C
:100BF20039F080ED97E00197F1F7A8951197C9F7C1
:100C02000895EA0FFB1F681F791F0895F195E1957A
:100C1200F0400895F09560957095E195FF4F6F4F04
:100C22007F4F0895EE0FFF1F661F771F08956F2FE6
:100C3200660F660B762F0895FA9FF02DEB9FF00D4D
:100C4200EA9FE02DF10D08957A9F702D6B9F700D34
:100C5200F89F700DE99F700D6A9F602D710DFB9FCB
:100C6200600D711DE89F600D711D8827FA9FF02DA0
:100C7200610D781FEB9FF00D611D781FEA9FE02D3B
:100C8200F10D681F781F089533D0D6DF0EF4BEDF52
:100C920008953CD0D9DF0EF4BDDF08953F934F9302
:100CA2005F93002411244427552730E2AA0FBB1F6B
:100CB200881F991F001C111C441F551F0E1A1F0A62
:100CC200460B570B28F40E0E1F1E461F571F01C05E
:100CD200A1603A9559F7FD01BC01D001CA015F91AB
:100CE2004F913F91089512D0D9DF0EF493DF08950A
:100CF200E894F7FF02C08ADF6894B7FF06C0A095A8
:100D0200B095119600F8039400FA0895E89477FFDD
:100D120002C080DF689497FF0BC00024A095B095B5
:100D2200809590951196801D901D00F8039400FA0D
:100D32000895AC0FBD1F05900D928A95E1F70895B5
:00000001FF
