:0A0000000C9458000C9400000C94BE
:10000A0000000C9400000C9400000C9400000C9466
:10001A0000000C9400000C9400000C9400000C9456
:10002A0000000C9400000C9400000C9400000C9446
:10003A0000000C9400000C9400000C9400000C9436
:10004A0000000C9400000C94000000000000000066
:10005A00000000000000000000000000456E74650A
:10006A0072204E206F6620667320617300666F6C83
:10007A006C6F7773004E2F66312D66322B66333DD7
:10008A0000494E56414C4944000001002D4E414E54
:10009A0000494E46000080C0010060029400020040
:1000AA006402A0000000F894EE27ECBBF1E0FBBF6D
:1000BA00EBBFE5BF8DE0A2E0BB27ED938A95E9F798
:1000CA0080E098E0A0E6ED930197E9F7E2EAF0E034
:1000DA0085919591009761F0A591B591059015903C
:1000EA00BF01F00105900D920197E1F7FB01F0CFF6
:1000FA00EFE5EDBFE8E0EEBFC0E6D2E00C94850084
:10010A00A29782E1A0E1B0E0E4E5F0E00E948E026D
:10011A0000E010E020E030E040E050E0EFE0E4BB37
:10012A00E0E0E5BBBB9A8D9A8F9AA0E10E94160285
:10013A00E0E0EA93A0E00E94C601A6E6B0E00E94D1
:10014A000302E0E0EA93A1E00E94C601A7E7B0E05B
:10015A000E944402AFE7B0E00E944402A89A9C9B26
:10016A0007C09C99FECF07E010E041E050E01AC0BA
:10017A009D9B07C09D99FECF08E010E041E050E04A
:10018A0011C09E9B07C09E99FECF09E010E041E096
:10019A0050E008C09F9B06C09F99FECFE1E0F0E0C7
:1001AA000E944C020E945302A898A99A9C9B05C0DF
:1001BA009C99FECF04E010E00DC09D9B05C09D995F
:1001CA00FECF05E010E006C09E9B06C09E99FECFBA
:1001DA0006E010E041E050E00E945302A998AA9A72
:1001EA009C9B07C09C99FECF01E010E041E050E0E3
:1001FA001AC09D9B07C09D99FECF02E010E041E026
:10020A0050E011C09E9B07C09E99FECF03E010E00C
:10021A0041E050E008C09F9B06C09F99FECFE2E0F4
:10022A00F0E00E944C020E945302AA98AB9A9D9B4E
:10023A0007C09D99FECF00E010E041E050E011C0F8
:10024A009E9B07C09E99FECFE1E0F0E0E88BF98B18
:10025A0008C09F9B06C09F99FECFE3E0F0E00E9492
:10026A004C02AB980E945302AC89BD89109729F4BD
:10027A00E1E0F0E0E417F50709F013C0F901AAE09C
:10028A00B0E00E947B02E00FF11F9F011A930A93CC
:10029A00DE0112960E94780120E030E0DE010E9421
:1002AA00F40140E050E02430E0E03E074CF0AC8935
:1002BA00BD89109729F4E1E0F0E0E417F50709F0A9
:1002CA000AC00E94D301ABE8B0E00E940302A8EE84
:1002DA00B3E00E94650220E030E040E050E00E9476
:1002EA00D3013CCFFFCFBA93AA93A991B991E991CF
:1002FA00F99130962AF4E095F09531966DE26D9376
:10030A00E89480E197E20DD088EE93E00AD084E683
:10031A00992707D08AE005D06E2F10D066276C93F4
:10032A0008956627E817F90720F06395E81BF90B8B
:10033A00C9F7662311F416F008956894605D6D9309
:10034A000895AA93EBB3EF70AE2FE881E07FEA2B12
:10035A00EBBB8DE08A95F1F7DA9A8DE08A95F1F791
:10036A00DA988DE08A95F1F788C0AA93A881E9DF27
:10037A00E881E295E883A881E4DF85E88A95F1F7C8
:10038A007CC0AA93E881F0E0EC59FD4FE081A98195
:10039A00AE0FEBDF5980488022960895A2E00E94B2
:1003AA005702ACE0E2DFA1E00E945702E0E04E2EE5
:1003BA005E2E0895AA93A881AA3011F0571448F026
:1003CA00E0E0EA934394A42DDCDFA881AA3009F483
:1003DA0054C05394D89AA881C8DFD8984EC0BA930B
:1003EA00AA931A93A981BA81ED91A983BA831E2F80
:1003FA00E03019F0A12FDEDFF5CF10C0BA93AA932F
:10040A001A93E981FA813196E983FA833197E49163
:10041A001E2FE03019F0A12FCDDFF3CF18812396DC
:10042A000895AA93EAB3E06FEABBD29AD09AD19A16
:10043A00DA98D898D9987880E881E058E0936602EB
:10044A00E881E054E0936702A4E1B0E00E9465020B
:10045A000E945D020E945D020E945D02A0E271DFBD
:10046A0088EC90E00197F1F7A8E27FDFA4E07DDF56
:10047A00A5E87BDFA6E079DF91DF219608950E9447
:10048A000302A0EDB7E00E9465020C94D301EC8B45
:10049A00FD8BE1E0F0E0EA8BFB8B0895AAE0B0E087
:1004AA000C9465020E94BA01A3E0B0E00C946502C4
:1004BA00A0E30E94A60188EC90E00197F1F7089565
:1004CA00109639F080ED97E00197F1F7A89511970A
:1004DA00C9F70895F195E195F0400895FA9FF02D36
:1004EA00EB9FF00DEA9FE02DF10D089504D0F6DFA1
:1004FA000EF4F0DF0895E894F7FF02C0EBDF68948A
:10050A00B7FF06C0A095B095119600F8039400FABB
:10051A000895AC0FBD1F05900D928A95E1F70895D5
:00000001FF
