:040000000C943F001D
:100004000C9400000C9400000C9400000C9400006C
:100014000C9400000C9400000C9400000C9400005C
:100024000C9400000C9400000C9400000C9400004C
:100034000C9400000C9400000C9400000C9400003C
:100044000C9400000C9400000C9400000C9400002C
:10005400507265737320616E79206B65790080C07E
:1000640001002D4E414E00494E4600000200600240
:1000740062000100640264000000F894EE27ECBB07
:10008400F1E0FBBFEBBFE5BF8DE0A2E0BB27ED9342
:100094008A95E9F780E098E0A0E6ED930197E9F707
:1000A400E0E7F0E085919591009761F0A591B59115
:1000B40005901590BF01F00105900D920197E1F7AD
:1000C400FB01F0CFEFE5EDBFE8E0EEBFC0E6D2E024
:1000D4000C946C00609700E010E0EFE0E4BBE0E01B
:1000E400E5BBA0E109D1E0E0EA93A0E0B5D0A4E546
:1000F400B0E0EFD0A89A9C9B03C007E010E00EC0CC
:100104009D9B03C008E010E009C09E9B03C009E06A
:1001140010E004C09F9B02C00AE010E0A898A99ACE
:100124009C9B03C004E010E00EC09D9B03C005E04F
:1001340010E009C09E9B03C006E010E004C09F9B32
:1001440002C00BE010E0A998AA9A9C9B03C001E0AE
:1001540010E00EC09D9B03C002E010E009C09E9B0E
:1001640003C003E010E004C09F9B02C00CE010E059
:10017400AA98AB9A9C9B03C00DE010E00EC09D9B17
:1001840003C000E010E009C09E9B03C00EE010E035
:1001940004C09F9B02C00FE010E0AB98E0E0EA933C
:1001A400A1E05AD01A930A93DE0112960E94AC0180
:1001B400EAE0F0E0E017F10719F4AFE266D02AC0F4
:1001C400EBE0F0E0E017F10719F4A8E75ED022C0F5
:1001D400ECE0F0E0E017F10719F4ADE256D01AC0F4
:1001E400EDE0F0E0E017F10719F4A3E64ED012C0F9
:1001F400EEE0F0E0E017F10719F4ADE346D00AC0F1
:10020400EFE0F0E0E017F10719F4ABE23ED002C0F2
:10021400DE0150D06FCFFFCFAA93EBB3EF70AE2FB8
:10022400E881E07FEA2BEBBB8DE08A95F1F7DA9A5F
:100234008DE08A95F1F7DA988DE08A95F1F788C018
:10024400AA93A881E9DFE881E295E883A881E4DF45
:1002540085E88A95F1F77CC0AA93E881F0E0E05A3A
:10026400FD4FE081A981AE0FEBDF598048802296D3
:100274000895A2E00E94DA01ACE0E2DFA1E00E946E
:10028400DA01E0E04E2E5E2E0895AA93A881AA30EA
:1002940011F0571448F0E0E0EA934394A42DDCDF16
:1002A400A881AA3009F454C05394D89AA881C8DF0D
:1002B400D8984EC0BA93AA931A93A981BA81ED91A2
:1002C400A983BA831E2FE03019F0A12FDEDFF5CF0A
:1002D40010C0BA93AA931A93E981FA813196E983FB
:1002E400FA833197E4911E2FE03019F0A12FCDDF6E
:1002F400F3CF188123960895AA93EAB3E06FEABB7B
:10030400D29AD09AD19ADA98D898D9987880E881F4
:10031400E058E0936202E881E054E0936302A4E1D0
:10032400B0E00E94E8010E94E0010E94E0010E9406
:10033400E001A0E271DF88EC90E00197F1F7A8E218
:100344007FDFA4E07DDFA5E87BDFA6E079DF91DF36
:1003540021960895BA93AA93A991B991E991F99133
:1003640030962AF4E095F09531966DE26D93E89419
:1003740080E197E20DD088EE93E00AD084E69927D5
:1003840007D08AE005D06E2F10D066276C930895AD
:100394006627E817F90720F06395E81BF90BC9F7FE
:1003A400662311F416F008956894605D6D930895C2
:1003B4000E942201A3E0B0E00C94E801A0E30E94B3
:1003C4000E0188EC90E00197F1F70895109639F04A
:1003D40080ED97E00197F1F7A8951197C9F7089573
:00000001FF
