:020000000C945E
:100002003C000C9400000C9400000C9400000C9432
:1000120000000C9400000C9400000C9400000C945E
:1000220000000C9400000C9400000C9400000C944E
:1000320000000C9400000C9400000C9400000C943E
:1000420000000C9400000C9400000C9400000C942E
:100052000000000080C001002D4E414E00494E4676
:10006200000002000400540002009E02560001003B
:10007200A20258000000F894EE27ECBBF1E0FBBFAF
:10008200EBBFE5BF8DE0A2E0BB27ED938A95E9F7D0
:1000920080E098E0A0E6ED930197E9F7E4E6F0E06E
:1000A20085919591009761F0A591B5910590159074
:1000B200BF01F00105900D920197E1F7FB01F0CF2E
:1000C200EFE5EDBFE8E0EEBFC0E6D2E00C947600CB
:1000D200AA93E881E062E7B98BE18A95F1F7369A53
:1000E200349BFECF349AE5B190C1E0E2E7B9E3EA8E
:1000F200E6B9E0E0E0BFB898B998C09AC19ABB9A55
:10010200C398EFEFE1BBE0E0E2BBA0E152D11FD127
:10011200A0E0DEDFFF2766277727E0936002F093F7
:1001220061026093620270936302E0E00E94360211
:10013200E0916002F09161020E943A02B0990EC011
:10014200B09903C00E944402FBCFA4E6B2E00E9431
:10015200D302EF5FFF4F6F4F7F4F0EC0B1990EC0BA
:10016200B19903C00E944402FBCFA4E6B2E00E9410
:10017200D3023197604070400E94D802E5E00E94AD
:100182003602E0916402F09165020E943A020E94F6
:100192005002A630E0E0BE07E0E08E07E0E09E07F6
:1001A20028F40E9450020E94DD02E8F4D0D0E0E080
:1001B200E0936002E0936102E0936202E0936302E3
:1001C200E0936802E0936902E0936A02E0936B02B3
:1001D200E0936402E0936502E0936602E0936702B3
:1001E200E3BFE2BFECBF0E945002A130E0E0BE07D5
:1001F200E0E08E07E0E09E0759F4E9E7E3BFE1E0C3
:10020200F0E00E9459020E945C020E94660259C0FC
:100212000E945002A230E0E0BE07E0E08E07E0E07C
:100222009E0759F4E8E0F0E00E9459020E945C0245
:10023200EAE7E3BF0E94660244C00E945002A33074
:10024200E0E0BE07E0E08E07E0E09E0769F4E0E44C
:10025200F0E00E9459020E945C02EBE7E3BFE8EE85
:10026200F1E060E070E02DC00E945002A430E0E0B6
:10027200BE07E0E08E07E0E09E0769F4E0E0F1E00F
:100282000E9459020E945C02ECE7E3BFEAE7F0E059
:1002920060E070E016C00E945002A530E0E0BE07A8
:1002A200E0E08E07E0E09E07F1F4E0E0F4E00E9477
:1002B20059020E945C02EDE7E3BFEEE1F0E060E08C
:1002C20070E0E0936802F093690260936A027093AF
:1002D2006B02E0E0EA93A1E02DD0E0916802F09198
:1002E20069020E943A02E0916002ECBFE2B7E2BB0F
:1002F2000FCFFFCFAA93E5B3EF70AE2FE881E07F77
:10030200EA2BE5BB8DE08A95F1F7AA9A8DE08A95F2
:10031200F1F7AA988DE08A95F1F777C0AA93A881A0
:10032200E9DFE881E295E883A881E4DF85E88A9540
:10033200F1F76BC0AA93E881F0E0E256FD4FE0814D
:10034200A981AE0FEBDF7980688022960895A2E042
:100352000E947102ACE0E2DFA1E00E947102E0E0E3
:100362006E2E7E2E0895AA93A881AA3011F07914D8
:1003720048F0E0E0EA936394A62DDCDFA881AA307E
:1003820009F443C07394A89AA881C8DFA8983DC015
:10039200BA93AA931A93A981BA81ED91A983BA83D8
:1003A2001E2FE03019F0A12FDEDFF5CF1881239642
:1003B2000895AA93E4B3E06FE4BBA29AA09AA19A2B
:1003C200AA98A898A9989880E881E058E093A0029A
:1003D200E881E054E093A102A4E1B0E00E947F0230
:1003E2000E9477020E9477020E947702A0E282DFD7
:1003F20088EC90E00197F1F7A8E290DFA4E08EDFAD
:10040200A5E88CDFA6E08ADFA2DF21960895BA93E1
:10041200AA93A991B991E991F99130962AF4E095BC
:10042200F09531966DE26D93E89480E197E20DD0FC
:1004320088EE93E00AD084E6992707D08AE005D0B7
:100442006E2F10D066276C9308956627E817F90778
:1004520020F06395E81BF90BC9F7662311F416F037
:1004620008956894605D6D930895EA93A0E00C94FA
:100472009B01FA93EA93ACE6B2E00E940802ACE672
:10048200B2E00C94C9010E94A801E0E0E093680286
:10049200E0936902E0936A02E0936B020895A091EF
:1004A2006402B0916502809166029091670208959C
:1004B2002F01E8E0DACF5A924A92ACE6B2E00E940B
:1004C2000802ACE6B2E00C94C901F42DE0E00E940F
:1004D2009102A0E0B2E18AE790E00E94BB02089597
:1004E2000E948F01A3E0B0E00C947F02A0E30E947F
:1004F2007B0188EC90E00197F1F70895109639F0AE
:1005020080ED97E00197F1F7A8951197C9F7089543
:10051200F09560957095E195FF4F6F4F7F4F08956D
:100522006F2F660F660B762F08953F934F935F935D
:10053200002411244427552730E2AA0FBB1F881F2D
:10054200991F001C111C441F551F0E1A1F0A460B2F
:10055200570B28F40E0E1F1E461F571F01C0A16025
:100562003A9559F7FD01BC01D001CA015F914F9143
:100572003F91089504D0D9DF0EF4CADF0895E894BC
:1005820077FF02C0C5DF689497FF0BC00024A095D7
:10059200B095809590951196801D901D00F803945A
:1005A20000FA0895ED91FD916D917D9108957E93EC
:1005B2006E93FE93EE9308951097804090400895B5
:00000001FF
