:020000000C945E
:100002003C000C9400000C9400000C9400000C9432
:1000120000000C9400000C9400000C9400000C945E
:1000220000000C9400000C9400000C9400000C944E
:1000320000000C9400000C9400000C9400000C943E
:1000420000000C9400000C9400000C9400000C942E
:100052000000000080C001002D4E414E00494E4676
:10006200000002000400540002009E02560001003B
:10007200A20258000000F894EE27ECBBF1E0FBBFAF
:10008200EBBFE5BF8DE0A2E0BB27ED938A95E9F7D0
:1000920080E098E0A0E6ED930197E9F7E4E6F0E06E
:1000A20085919591009761F0A591B5910590159074
:1000B200BF01F00105900D920197E1F7FB01F0CF2E
:1000C200EFE5EDBFE8E0EEBFC0E6D2E00C947600CB
:1000D200AA93E881E062E7B98BE18A95F1F7369A53
:1000E200349BFECF349AE5B199C1E0E2E7B9E3EA85
:1000F200E6B9E0E0E0BFB898B998C09AC19ABB9A55
:10010200C398EFEFE1BBE0E0E2BBA0E15BD128D115
:10011200A0E0DEDFFF2766277727E0936002F093F7
:1001220061026093620270936302E0E00E943F0208
:10013200E0916002F09161020E944302B0990EC008
:10014200B09903C00E944D02FBCFA4E6B2E00E9428
:10015200F302EF5FFF4F6F4F7F4F0EC0B1990EC09A
:10016200B19903C00E944D02FBCFA4E6B2E00E9407
:10017200F3023197604070400E94F802E5E00E946D
:100182003F02E0916402F09165020E9443020E94E4
:100192005902A630E0E0BE07E0E08E07E0E09E07ED
:1001A20028F40E9459020E94FD02E8F4D9D0E0E04E
:1001B200E0936002E0936102E0936202E0936302E3
:1001C200E0936802E0936902E0936A02E0936B02B3
:1001D200E0936402E0936502E0936602E0936702B3
:1001E200E3BFE2BFECBF0E945902A130E0E0BE07CC
:1001F200E0E08E07E0E09E0751F4E1E0F0E00E94CB
:1002020062020E946502E9E10E946F025BC00E94E5
:100212005902A230E0E0BE07E0E08E07E0E09E0770
:1002220051F4E8E0F0E00E9462020E946502EAE115
:100232000E946F0247C00E945902A330E0E0BE074D
:10024200E0E08E07E0E09E0771F4E0E4F0E00E9457
:1002520062020E946502EBE10E948302A0E8B0E024
:1002620080E090E02FC00E945902A430E0E0BE0777
:10027200E0E08E07E0E09E0771F4E0E0F1E00E942A
:1002820062020E946502ECE10E948302A0E0B2E0F9
:1002920080E090E017C00E945902A530E0E0BE075E
:1002A200E0E08E07E0E09E0739F5E0E0F4E00E942E
:1002B20062020E946502EDE10E948302A0E0B8E0C2
:1002C20080E090E00E94AE02A0E0B2E18AE790E016
:1002D2000E94CE02E0936802F093690260936A0280
:1002E20070936B02E0E0EA93A1E02DD0E091680206
:1002F200F09169020E944302E0916002ECBFE2B712
:10030200E2BB06CFFFCFAA93E5B3EF70AE2FE88131
:10031200E07FEA2BE5BB8DE08A95F1F7AA9A8DE0A2
:100322008A95F1F7AA988DE08A95F1F777C0AA939A
:10033200A881E9DFE881E295E883A881E4DF85E826
:100342008A95F1F76BC0AA93E881F0E0E256FD4F7F
:10035200E081A981AE0FEBDF798068802296089553
:10036200A2E00E949102ACE0E2DFA1E00E949102D1
:10037200E0E06E2E7E2E0895AA93A881AA3011F095
:10038200791448F0E0E0EA936394A62DDCDFA881BB
:10039200AA3009F443C07394A89AA881C8DFA89828
:1003A2003DC0BA93AA931A93A981BA81ED91A98308
:1003B200BA831E2FE03019F0A12FDEDFF5CF1881AE
:1003C20023960895AA93E4B3E06FE4BBA29AA09A9D
:1003D200A19AAA98A898A9989880E881E058E093F1
:1003E200A002E881E054E093A102A4E1B0E00E94FF
:1003F2009F020E9497020E9497020E949702A0E227
:1004020082DF88EC90E00197F1F7A8E290DFA4E0A8
:100412008EDFA5E88CDFA6E08ADFA2DF21960895B1
:10042200BA93AA93A991B991E991F99130962AF4D4
:10043200E095F09531966DE26D93E89480E197E254
:100442000DD088EE93E00AD084E6992707D08AE09F
:1004520005D06E2F10D066276C9308956627E81793
:10046200F90720F06395E81BF90BC9F7662311F42D
:1004720016F008956894605D6D930895EA93A0E084
:100482000C94A401FA93EA93ACE6B2E00E94110242
:10049200ACE6B2E00C94D2010E94B101E0E0E0933C
:1004A2006802E0936902E0936A02E0936B020895A6
:1004B200A0916402B09165028091660290916702F8
:1004C20008952F01E8E0DACF5A924A92ACE6B2E000
:1004D2000E941102ACE6B2E00C94D201E3BFF20139
:1004E200EE0FFF1FDF01E0916002F0916102609167
:1004F200620270916302EF5FFF4F6F4F7F4F0E9466
:10050200A9020895E3BFE0916002F0916102609157
:10051200620270916302EF5FFF4F6F4F7F4F08954A
:100522000E949801A3E0B0E00C949F02A0E30E9415
:10053200840188EC90E00197F1F70895109639F064
:1005420080ED97E00197F1F7A8951197C9F7089503
:100552008B2F880F880B982F08957A9F702D6B9F91
:10056200700DF89F700DE99F700D6A9F602D710DDF
:10057200FB9F600D711DE89F600D711D8827FA9F1A
:10058200F02D610D781FEB9FF00D611D781FEA9F22
:10059200E02DF10D681F781F08953F934F935F93ED
:1005A200002411244427552730E2AA0FBB1F881FBD
:1005B200991F001C111C441F551F0E1A1F0A460BBF
:1005C200570B28F40E0E1F1E461F571F01C0A160B5
:1005D2003A9559F7FD01BC01D001CA015F914F91D3
:1005E2003F910895ED91FD916D917D9108957E93D6
:1005F2006E93FE93EE930895109780409040089575
:00000001FF
